{
	"data": {
		"bytecode": {
			"linkReferences": {},
			"object": "60806040523480156200001157600080fd5b5060405180604001604052806040518060400160405280600481526020017f526f7469000000000000000000000000000000000000000000000000000000008152508152602001600a815250600260006001600281111562000078576200007762000220565b5b60028111156200008d576200008c62000220565b5b81526020019081526020016000206000820151816000019081620000b29190620004c9565b506020820151816001015590505060405180604001604052806040518060400160405280600481526020017f53757375000000000000000000000000000000000000000000000000000000008152508152602001600a8152506002600080600281111562000125576200012462000220565b5b60028111156200013a576200013962000220565b5b815260200190815260200160002060008201518160000190816200015f9190620004c9565b506020820151816001015590505060405180604001604052806040518060400160405280600581526020017f54656c75720000000000000000000000000000000000000000000000000000008152508152602001600a81525060026000600280811115620001d257620001d162000220565b5b6002811115620001e757620001e662000220565b5b815260200190815260200160002060008201518160000190816200020c9190620004c9565b5060208201518160010155905050620005b0565b7f4e487b7100000000000000000000000000000000000000000000000000000000600052602160045260246000fd5b600081519050919050565b7f4e487b7100000000000000000000000000000000000000000000000000000000600052604160045260246000fd5b7f4e487b7100000000000000000000000000000000000000000000000000000000600052602260045260246000fd5b60006002820490506001821680620002d157607f821691505b602082108103620002e757620002e662000289565b5b50919050565b60008190508160005260206000209050919050565b60006020601f8301049050919050565b600082821b905092915050565b600060088302620003517fffffffffffffffffffffffffffffffffffffffffffffffffffffffffffffffff8262000312565b6200035d868362000312565b95508019841693508086168417925050509392505050565b6000819050919050565b6000819050919050565b6000620003aa620003a46200039e8462000375565b6200037f565b62000375565b9050919050565b6000819050919050565b620003c68362000389565b620003de620003d582620003b1565b8484546200031f565b825550505050565b600090565b620003f5620003e6565b62000402818484620003bb565b505050565b5b818110156200042a576200041e600082620003eb565b60018101905062000408565b5050565b601f82111562000479576200044381620002ed565b6200044e8462000302565b810160208510156200045e578190505b620004766200046d8562000302565b83018262000407565b50505b505050565b600082821c905092915050565b60006200049e600019846008026200047e565b1980831691505092915050565b6000620004b983836200048b565b9150826002028217905092915050565b620004d4826200024f565b67ffffffffffffffff811115620004f057620004ef6200025a565b5b620004fc8254620002b8565b620005098282856200042e565b600060209050601f8311600181146200054157600084156200052c578287015190505b620005388582620004ab565b865550620005a8565b601f1984166200055186620002ed565b60005b828110156200057b5784890151825560018201915060208501945060208101905062000554565b868310156200059b578489015162000597601f8916826200048b565b8355505b6001600288020188555050505b505050505050565b61056180620005c06000396000f3fe608060405234801561001057600080fd5b506004361061004c5760003560e01c8063148f03ac146100515780638da5cb5b14610082578063b344c2b3146100a0578063f1e45cea146100be575b600080fd5b61006b60048036038101906100669190610247565b6100f0565b60405161007992919061031d565b60405180910390f35b61008a61019c565b604051610097919061038e565b60405180910390f35b6100a86101c0565b6040516100b591906103a9565b60405180910390f35b6100d860048036038101906100d391906103f0565b6101c6565b6040516100e793929190610494565b60405180910390f35b6002602052806000526040600020600091509050806000018054610113906104fa565b80601f016020809104026020016040519081016040528092919081815260200182805461013f906104fa565b801561018c5780601f106101615761010080835404028352916020019161018c565b820191906000526020600020905b81548152906001019060200180831161016f57829003601f168201915b5050505050908060010154905082565b60008054906101000a900473ffffffffffffffffffffffffffffffffffffffff1681565b60015481565b60036020528060005260406000206000915090508060000160009054906101000a900473ffffffffffffffffffffffffffffffffffffffff16908060000160149054906101000a900460ff16908060010154905083565b600080fd5b6003811061022f57600080fd5b50565b60008135905061024181610222565b92915050565b60006020828403121561025d5761025c61021d565b5b600061026b84828501610232565b91505092915050565b600081519050919050565b600082825260208201905092915050565b60005b838110156102ae578082015181840152602081019050610293565b60008484015250505050565b6000601f19601f8301169050919050565b60006102d682610274565b6102e0818561027f565b93506102f0818560208601610290565b6102f9816102ba565b840191505092915050565b6000819050919050565b61031781610304565b82525050565b6000604082019050818103600083015261033781856102cb565b9050610346602083018461030e565b9392505050565b600073ffffffffffffffffffffffffffffffffffffffff82169050919050565b60006103788261034d565b9050919050565b6103888161036d565b82525050565b60006020820190506103a3600083018461037f565b92915050565b60006020820190506103be600083018461030e565b92915050565b6103cd81610304565b81146103d857600080fd5b50565b6000813590506103ea816103c4565b92915050565b6000602082840312156104065761040561021d565b5b6000610414848285016103db565b91505092915050565b7f4e487b7100000000000000000000000000000000000000000000000000000000600052602160045260246000fd5b6003811061045d5761045c61041d565b5b50565b600081905061046e8261044c565b919050565b600061047e82610460565b9050919050565b61048e81610473565b82525050565b60006060820190506104a9600083018661037f565b6104b66020830185610485565b6104c3604083018461030e565b949350505050565b7f4e487b7100000000000000000000000000000000000000000000000000000000600052602260045260246000fd5b6000600282049050600182168061051257607f821691505b602082108103610525576105246104cb565b5b5091905056fea26469706673582212200e7ef82eab5f73cb0f8d8020a5b18bf67ff1543662a463d63ff2a4473d3ff2dd64736f6c63430008120033",
			"opcodes": "PUSH1 0x80 PUSH1 0x40 MSTORE CALLVALUE DUP1 ISZERO PUSH3 0x11 JUMPI PUSH1 0x0 DUP1 REVERT JUMPDEST POP PUSH1 0x40 MLOAD DUP1 PUSH1 0x40 ADD PUSH1 0x40 MSTORE DUP1 PUSH1 0x40 MLOAD DUP1 PUSH1 0x40 ADD PUSH1 0x40 MSTORE DUP1 PUSH1 0x4 DUP2 MSTORE PUSH1 0x20 ADD PUSH32 0x526F746900000000000000000000000000000000000000000000000000000000 DUP2 MSTORE POP DUP2 MSTORE PUSH1 0x20 ADD PUSH1 0xA DUP2 MSTORE POP PUSH1 0x2 PUSH1 0x0 PUSH1 0x1 PUSH1 0x2 DUP2 GT ISZERO PUSH3 0x78 JUMPI PUSH3 0x77 PUSH3 0x220 JUMP JUMPDEST JUMPDEST PUSH1 0x2 DUP2 GT ISZERO PUSH3 0x8D JUMPI PUSH3 0x8C PUSH3 0x220 JUMP JUMPDEST JUMPDEST DUP2 MSTORE PUSH1 0x20 ADD SWAP1 DUP2 MSTORE PUSH1 0x20 ADD PUSH1 0x0 KECCAK256 PUSH1 0x0 DUP3 ADD MLOAD DUP2 PUSH1 0x0 ADD SWAP1 DUP2 PUSH3 0xB2 SWAP2 SWAP1 PUSH3 0x4C9 JUMP JUMPDEST POP PUSH1 0x20 DUP3 ADD MLOAD DUP2 PUSH1 0x1 ADD SSTORE SWAP1 POP POP PUSH1 0x40 MLOAD DUP1 PUSH1 0x40 ADD PUSH1 0x40 MSTORE DUP1 PUSH1 0x40 MLOAD DUP1 PUSH1 0x40 ADD PUSH1 0x40 MSTORE DUP1 PUSH1 0x4 DUP2 MSTORE PUSH1 0x20 ADD PUSH32 0x5375737500000000000000000000000000000000000000000000000000000000 DUP2 MSTORE POP DUP2 MSTORE PUSH1 0x20 ADD PUSH1 0xA DUP2 MSTORE POP PUSH1 0x2 PUSH1 0x0 DUP1 PUSH1 0x2 DUP2 GT ISZERO PUSH3 0x125 JUMPI PUSH3 0x124 PUSH3 0x220 JUMP JUMPDEST JUMPDEST PUSH1 0x2 DUP2 GT ISZERO PUSH3 0x13A JUMPI PUSH3 0x139 PUSH3 0x220 JUMP JUMPDEST JUMPDEST DUP2 MSTORE PUSH1 0x20 ADD SWAP1 DUP2 MSTORE PUSH1 0x20 ADD PUSH1 0x0 KECCAK256 PUSH1 0x0 DUP3 ADD MLOAD DUP2 PUSH1 0x0 ADD SWAP1 DUP2 PUSH3 0x15F SWAP2 SWAP1 PUSH3 0x4C9 JUMP JUMPDEST POP PUSH1 0x20 DUP3 ADD MLOAD DUP2 PUSH1 0x1 ADD SSTORE SWAP1 POP POP PUSH1 0x40 MLOAD DUP1 PUSH1 0x40 ADD PUSH1 0x40 MSTORE DUP1 PUSH1 0x40 MLOAD DUP1 PUSH1 0x40 ADD PUSH1 0x40 MSTORE DUP1 PUSH1 0x5 DUP2 MSTORE PUSH1 0x20 ADD PUSH32 0x54656C7572000000000000000000000000000000000000000000000000000000 DUP2 MSTORE POP DUP2 MSTORE PUSH1 0x20 ADD PUSH1 0xA DUP2 MSTORE POP PUSH1 0x2 PUSH1 0x0 PUSH1 0x2 DUP1 DUP2 GT ISZERO PUSH3 0x1D2 JUMPI PUSH3 0x1D1 PUSH3 0x220 JUMP JUMPDEST JUMPDEST PUSH1 0x2 DUP2 GT ISZERO PUSH3 0x1E7 JUMPI PUSH3 0x1E6 PUSH3 0x220 JUMP JUMPDEST JUMPDEST DUP2 MSTORE PUSH1 0x20 ADD SWAP1 DUP2 MSTORE PUSH1 0x20 ADD PUSH1 0x0 KECCAK256 PUSH1 0x0 DUP3 ADD MLOAD DUP2 PUSH1 0x0 ADD SWAP1 DUP2 PUSH3 0x20C SWAP2 SWAP1 PUSH3 0x4C9 JUMP JUMPDEST POP PUSH1 0x20 DUP3 ADD MLOAD DUP2 PUSH1 0x1 ADD SSTORE SWAP1 POP POP PUSH3 0x5B0 JUMP JUMPDEST PUSH32 0x4E487B7100000000000000000000000000000000000000000000000000000000 PUSH1 0x0 MSTORE PUSH1 0x21 PUSH1 0x4 MSTORE PUSH1 0x24 PUSH1 0x0 REVERT JUMPDEST PUSH1 0x0 DUP2 MLOAD SWAP1 POP SWAP2 SWAP1 POP JUMP JUMPDEST PUSH32 0x4E487B7100000000000000000000000000000000000000000000000000000000 PUSH1 0x0 MSTORE PUSH1 0x41 PUSH1 0x4 MSTORE PUSH1 0x24 PUSH1 0x0 REVERT JUMPDEST PUSH32 0x4E487B7100000000000000000000000000000000000000000000000000000000 PUSH1 0x0 MSTORE PUSH1 0x22 PUSH1 0x4 MSTORE PUSH1 0x24 PUSH1 0x0 REVERT JUMPDEST PUSH1 0x0 PUSH1 0x2 DUP3 DIV SWAP1 POP PUSH1 0x1 DUP3 AND DUP1 PUSH3 0x2D1 JUMPI PUSH1 0x7F DUP3 AND SWAP2 POP JUMPDEST PUSH1 0x20 DUP3 LT DUP2 SUB PUSH3 0x2E7 JUMPI PUSH3 0x2E6 PUSH3 0x289 JUMP JUMPDEST JUMPDEST POP SWAP2 SWAP1 POP JUMP JUMPDEST PUSH1 0x0 DUP2 SWAP1 POP DUP2 PUSH1 0x0 MSTORE PUSH1 0x20 PUSH1 0x0 KECCAK256 SWAP1 POP SWAP2 SWAP1 POP JUMP JUMPDEST PUSH1 0x0 PUSH1 0x20 PUSH1 0x1F DUP4 ADD DIV SWAP1 POP SWAP2 SWAP1 POP JUMP JUMPDEST PUSH1 0x0 DUP3 DUP3 SHL SWAP1 POP SWAP3 SWAP2 POP POP JUMP JUMPDEST PUSH1 0x0 PUSH1 0x8 DUP4 MUL PUSH3 0x351 PUSH32 0xFFFFFFFFFFFFFFFFFFFFFFFFFFFFFFFFFFFFFFFFFFFFFFFFFFFFFFFFFFFFFFFF DUP3 PUSH3 0x312 JUMP JUMPDEST PUSH3 0x35D DUP7 DUP4 PUSH3 0x312 JUMP JUMPDEST SWAP6 POP DUP1 NOT DUP5 AND SWAP4 POP DUP1 DUP7 AND DUP5 OR SWAP3 POP POP POP SWAP4 SWAP3 POP POP POP JUMP JUMPDEST PUSH1 0x0 DUP2 SWAP1 POP SWAP2 SWAP1 POP JUMP JUMPDEST PUSH1 0x0 DUP2 SWAP1 POP SWAP2 SWAP1 POP JUMP JUMPDEST PUSH1 0x0 PUSH3 0x3AA PUSH3 0x3A4 PUSH3 0x39E DUP5 PUSH3 0x375 JUMP JUMPDEST PUSH3 0x37F JUMP JUMPDEST PUSH3 0x375 JUMP JUMPDEST SWAP1 POP SWAP2 SWAP1 POP JUMP JUMPDEST PUSH1 0x0 DUP2 SWAP1 POP SWAP2 SWAP1 POP JUMP JUMPDEST PUSH3 0x3C6 DUP4 PUSH3 0x389 JUMP JUMPDEST PUSH3 0x3DE PUSH3 0x3D5 DUP3 PUSH3 0x3B1 JUMP JUMPDEST DUP5 DUP5 SLOAD PUSH3 0x31F JUMP JUMPDEST DUP3 SSTORE POP POP POP POP JUMP JUMPDEST PUSH1 0x0 SWAP1 JUMP JUMPDEST PUSH3 0x3F5 PUSH3 0x3E6 JUMP JUMPDEST PUSH3 0x402 DUP2 DUP5 DUP5 PUSH3 0x3BB JUMP JUMPDEST POP POP POP JUMP JUMPDEST JUMPDEST DUP2 DUP2 LT ISZERO PUSH3 0x42A JUMPI PUSH3 0x41E PUSH1 0x0 DUP3 PUSH3 0x3EB JUMP JUMPDEST PUSH1 0x1 DUP2 ADD SWAP1 POP PUSH3 0x408 JUMP JUMPDEST POP POP JUMP JUMPDEST PUSH1 0x1F DUP3 GT ISZERO PUSH3 0x479 JUMPI PUSH3 0x443 DUP2 PUSH3 0x2ED JUMP JUMPDEST PUSH3 0x44E DUP5 PUSH3 0x302 JUMP JUMPDEST DUP2 ADD PUSH1 0x20 DUP6 LT ISZERO PUSH3 0x45E JUMPI DUP2 SWAP1 POP JUMPDEST PUSH3 0x476 PUSH3 0x46D DUP6 PUSH3 0x302 JUMP JUMPDEST DUP4 ADD DUP3 PUSH3 0x407 JUMP JUMPDEST POP POP JUMPDEST POP POP POP JUMP JUMPDEST PUSH1 0x0 DUP3 DUP3 SHR SWAP1 POP SWAP3 SWAP2 POP POP JUMP JUMPDEST PUSH1 0x0 PUSH3 0x49E PUSH1 0x0 NOT DUP5 PUSH1 0x8 MUL PUSH3 0x47E JUMP JUMPDEST NOT DUP1 DUP4 AND SWAP2 POP POP SWAP3 SWAP2 POP POP JUMP JUMPDEST PUSH1 0x0 PUSH3 0x4B9 DUP4 DUP4 PUSH3 0x48B JUMP JUMPDEST SWAP2 POP DUP3 PUSH1 0x2 MUL DUP3 OR SWAP1 POP SWAP3 SWAP2 POP POP JUMP JUMPDEST PUSH3 0x4D4 DUP3 PUSH3 0x24F JUMP JUMPDEST PUSH8 0xFFFFFFFFFFFFFFFF DUP2 GT ISZERO PUSH3 0x4F0 JUMPI PUSH3 0x4EF PUSH3 0x25A JUMP JUMPDEST JUMPDEST PUSH3 0x4FC DUP3 SLOAD PUSH3 0x2B8 JUMP JUMPDEST PUSH3 0x509 DUP3 DUP3 DUP6 PUSH3 0x42E JUMP JUMPDEST PUSH1 0x0 PUSH1 0x20 SWAP1 POP PUSH1 0x1F DUP4 GT PUSH1 0x1 DUP2 EQ PUSH3 0x541 JUMPI PUSH1 0x0 DUP5 ISZERO PUSH3 0x52C JUMPI DUP3 DUP8 ADD MLOAD SWAP1 POP JUMPDEST PUSH3 0x538 DUP6 DUP3 PUSH3 0x4AB JUMP JUMPDEST DUP7 SSTORE POP PUSH3 0x5A8 JUMP JUMPDEST PUSH1 0x1F NOT DUP5 AND PUSH3 0x551 DUP7 PUSH3 0x2ED JUMP JUMPDEST PUSH1 0x0 JUMPDEST DUP3 DUP2 LT ISZERO PUSH3 0x57B JUMPI DUP5 DUP10 ADD MLOAD DUP3 SSTORE PUSH1 0x1 DUP3 ADD SWAP2 POP PUSH1 0x20 DUP6 ADD SWAP5 POP PUSH1 0x20 DUP2 ADD SWAP1 POP PUSH3 0x554 JUMP JUMPDEST DUP7 DUP4 LT ISZERO PUSH3 0x59B JUMPI DUP5 DUP10 ADD MLOAD PUSH3 0x597 PUSH1 0x1F DUP10 AND DUP3 PUSH3 0x48B JUMP JUMPDEST DUP4 SSTORE POP JUMPDEST PUSH1 0x1 PUSH1 0x2 DUP9 MUL ADD DUP9 SSTORE POP POP POP JUMPDEST POP POP POP POP POP POP JUMP JUMPDEST PUSH2 0x561 DUP1 PUSH3 0x5C0 PUSH1 0x0 CODECOPY PUSH1 0x0 RETURN INVALID PUSH1 0x80 PUSH1 0x40 MSTORE CALLVALUE DUP1 ISZERO PUSH2 0x10 JUMPI PUSH1 0x0 DUP1 REVERT JUMPDEST POP PUSH1 0x4 CALLDATASIZE LT PUSH2 0x4C JUMPI PUSH1 0x0 CALLDATALOAD PUSH1 0xE0 SHR DUP1 PUSH4 0x148F03AC EQ PUSH2 0x51 JUMPI DUP1 PUSH4 0x8DA5CB5B EQ PUSH2 0x82 JUMPI DUP1 PUSH4 0xB344C2B3 EQ PUSH2 0xA0 JUMPI DUP1 PUSH4 0xF1E45CEA EQ PUSH2 0xBE JUMPI JUMPDEST PUSH1 0x0 DUP1 REVERT JUMPDEST PUSH2 0x6B PUSH1 0x4 DUP1 CALLDATASIZE SUB DUP2 ADD SWAP1 PUSH2 0x66 SWAP2 SWAP1 PUSH2 0x247 JUMP JUMPDEST PUSH2 0xF0 JUMP JUMPDEST PUSH1 0x40 MLOAD PUSH2 0x79 SWAP3 SWAP2 SWAP1 PUSH2 0x31D JUMP JUMPDEST PUSH1 0x40 MLOAD DUP1 SWAP2 SUB SWAP1 RETURN JUMPDEST PUSH2 0x8A PUSH2 0x19C JUMP JUMPDEST PUSH1 0x40 MLOAD PUSH2 0x97 SWAP2 SWAP1 PUSH2 0x38E JUMP JUMPDEST PUSH1 0x40 MLOAD DUP1 SWAP2 SUB SWAP1 RETURN JUMPDEST PUSH2 0xA8 PUSH2 0x1C0 JUMP JUMPDEST PUSH1 0x40 MLOAD PUSH2 0xB5 SWAP2 SWAP1 PUSH2 0x3A9 JUMP JUMPDEST PUSH1 0x40 MLOAD DUP1 SWAP2 SUB SWAP1 RETURN JUMPDEST PUSH2 0xD8 PUSH1 0x4 DUP1 CALLDATASIZE SUB DUP2 ADD SWAP1 PUSH2 0xD3 SWAP2 SWAP1 PUSH2 0x3F0 JUMP JUMPDEST PUSH2 0x1C6 JUMP JUMPDEST PUSH1 0x40 MLOAD PUSH2 0xE7 SWAP4 SWAP3 SWAP2 SWAP1 PUSH2 0x494 JUMP JUMPDEST PUSH1 0x40 MLOAD DUP1 SWAP2 SUB SWAP1 RETURN JUMPDEST PUSH1 0x2 PUSH1 0x20 MSTORE DUP1 PUSH1 0x0 MSTORE PUSH1 0x40 PUSH1 0x0 KECCAK256 PUSH1 0x0 SWAP2 POP SWAP1 POP DUP1 PUSH1 0x0 ADD DUP1 SLOAD PUSH2 0x113 SWAP1 PUSH2 0x4FA JUMP JUMPDEST DUP1 PUSH1 0x1F ADD PUSH1 0x20 DUP1 SWAP2 DIV MUL PUSH1 0x20 ADD PUSH1 0x40 MLOAD SWAP1 DUP2 ADD PUSH1 0x40 MSTORE DUP1 SWAP3 SWAP2 SWAP1 DUP2 DUP2 MSTORE PUSH1 0x20 ADD DUP3 DUP1 SLOAD PUSH2 0x13F SWAP1 PUSH2 0x4FA JUMP JUMPDEST DUP1 ISZERO PUSH2 0x18C JUMPI DUP1 PUSH1 0x1F LT PUSH2 0x161 JUMPI PUSH2 0x100 DUP1 DUP4 SLOAD DIV MUL DUP4 MSTORE SWAP2 PUSH1 0x20 ADD SWAP2 PUSH2 0x18C JUMP JUMPDEST DUP3 ADD SWAP2 SWAP1 PUSH1 0x0 MSTORE PUSH1 0x20 PUSH1 0x0 KECCAK256 SWAP1 JUMPDEST DUP2 SLOAD DUP2 MSTORE SWAP1 PUSH1 0x1 ADD SWAP1 PUSH1 0x20 ADD DUP1 DUP4 GT PUSH2 0x16F JUMPI DUP3 SWAP1 SUB PUSH1 0x1F AND DUP3 ADD SWAP2 JUMPDEST POP POP POP POP POP SWAP1 DUP1 PUSH1 0x1 ADD SLOAD SWAP1 POP DUP3 JUMP JUMPDEST PUSH1 0x0 DUP1 SLOAD SWAP1 PUSH2 0x100 EXP SWAP1 DIV PUSH20 0xFFFFFFFFFFFFFFFFFFFFFFFFFFFFFFFFFFFFFFFF AND DUP2 JUMP JUMPDEST PUSH1 0x1 SLOAD DUP2 JUMP JUMPDEST PUSH1 0x3 PUSH1 0x20 MSTORE DUP1 PUSH1 0x0 MSTORE PUSH1 0x40 PUSH1 0x0 KECCAK256 PUSH1 0x0 SWAP2 POP SWAP1 POP DUP1 PUSH1 0x0 ADD PUSH1 0x0 SWAP1 SLOAD SWAP1 PUSH2 0x100 EXP SWAP1 DIV PUSH20 0xFFFFFFFFFFFFFFFFFFFFFFFFFFFFFFFFFFFFFFFF AND SWAP1 DUP1 PUSH1 0x0 ADD PUSH1 0x14 SWAP1 SLOAD SWAP1 PUSH2 0x100 EXP SWAP1 DIV PUSH1 0xFF AND SWAP1 DUP1 PUSH1 0x1 ADD SLOAD SWAP1 POP DUP4 JUMP JUMPDEST PUSH1 0x0 DUP1 REVERT JUMPDEST PUSH1 0x3 DUP2 LT PUSH2 0x22F JUMPI PUSH1 0x0 DUP1 REVERT JUMPDEST POP JUMP JUMPDEST PUSH1 0x0 DUP2 CALLDATALOAD SWAP1 POP PUSH2 0x241 DUP2 PUSH2 0x222 JUMP JUMPDEST SWAP3 SWAP2 POP POP JUMP JUMPDEST PUSH1 0x0 PUSH1 0x20 DUP3 DUP5 SUB SLT ISZERO PUSH2 0x25D JUMPI PUSH2 0x25C PUSH2 0x21D JUMP JUMPDEST JUMPDEST PUSH1 0x0 PUSH2 0x26B DUP5 DUP3 DUP6 ADD PUSH2 0x232 JUMP JUMPDEST SWAP2 POP POP SWAP3 SWAP2 POP POP JUMP JUMPDEST PUSH1 0x0 DUP2 MLOAD SWAP1 POP SWAP2 SWAP1 POP JUMP JUMPDEST PUSH1 0x0 DUP3 DUP3 MSTORE PUSH1 0x20 DUP3 ADD SWAP1 POP SWAP3 SWAP2 POP POP JUMP JUMPDEST PUSH1 0x0 JUMPDEST DUP4 DUP2 LT ISZERO PUSH2 0x2AE JUMPI DUP1 DUP3 ADD MLOAD DUP2 DUP5 ADD MSTORE PUSH1 0x20 DUP2 ADD SWAP1 POP PUSH2 0x293 JUMP JUMPDEST PUSH1 0x0 DUP5 DUP5 ADD MSTORE POP POP POP POP JUMP JUMPDEST PUSH1 0x0 PUSH1 0x1F NOT PUSH1 0x1F DUP4 ADD AND SWAP1 POP SWAP2 SWAP1 POP JUMP JUMPDEST PUSH1 0x0 PUSH2 0x2D6 DUP3 PUSH2 0x274 JUMP JUMPDEST PUSH2 0x2E0 DUP2 DUP6 PUSH2 0x27F JUMP JUMPDEST SWAP4 POP PUSH2 0x2F0 DUP2 DUP6 PUSH1 0x20 DUP7 ADD PUSH2 0x290 JUMP JUMPDEST PUSH2 0x2F9 DUP2 PUSH2 0x2BA JUMP JUMPDEST DUP5 ADD SWAP2 POP POP SWAP3 SWAP2 POP POP JUMP JUMPDEST PUSH1 0x0 DUP2 SWAP1 POP SWAP2 SWAP1 POP JUMP JUMPDEST PUSH2 0x317 DUP2 PUSH2 0x304 JUMP JUMPDEST DUP3 MSTORE POP POP JUMP JUMPDEST PUSH1 0x0 PUSH1 0x40 DUP3 ADD SWAP1 POP DUP2 DUP2 SUB PUSH1 0x0 DUP4 ADD MSTORE PUSH2 0x337 DUP2 DUP6 PUSH2 0x2CB JUMP JUMPDEST SWAP1 POP PUSH2 0x346 PUSH1 0x20 DUP4 ADD DUP5 PUSH2 0x30E JUMP JUMPDEST SWAP4 SWAP3 POP POP POP JUMP JUMPDEST PUSH1 0x0 PUSH20 0xFFFFFFFFFFFFFFFFFFFFFFFFFFFFFFFFFFFFFFFF DUP3 AND SWAP1 POP SWAP2 SWAP1 POP JUMP JUMPDEST PUSH1 0x0 PUSH2 0x378 DUP3 PUSH2 0x34D JUMP JUMPDEST SWAP1 POP SWAP2 SWAP1 POP JUMP JUMPDEST PUSH2 0x388 DUP2 PUSH2 0x36D JUMP JUMPDEST DUP3 MSTORE POP POP JUMP JUMPDEST PUSH1 0x0 PUSH1 0x20 DUP3 ADD SWAP1 POP PUSH2 0x3A3 PUSH1 0x0 DUP4 ADD DUP5 PUSH2 0x37F JUMP JUMPDEST SWAP3 SWAP2 POP POP JUMP JUMPDEST PUSH1 0x0 PUSH1 0x20 DUP3 ADD SWAP1 POP PUSH2 0x3BE PUSH1 0x0 DUP4 ADD DUP5 PUSH2 0x30E JUMP JUMPDEST SWAP3 SWAP2 POP POP JUMP JUMPDEST PUSH2 0x3CD DUP2 PUSH2 0x304 JUMP JUMPDEST DUP2 EQ PUSH2 0x3D8 JUMPI PUSH1 0x0 DUP1 REVERT JUMPDEST POP JUMP JUMPDEST PUSH1 0x0 DUP2 CALLDATALOAD SWAP1 POP PUSH2 0x3EA DUP2 PUSH2 0x3C4 JUMP JUMPDEST SWAP3 SWAP2 POP POP JUMP JUMPDEST PUSH1 0x0 PUSH1 0x20 DUP3 DUP5 SUB SLT ISZERO PUSH2 0x406 JUMPI PUSH2 0x405 PUSH2 0x21D JUMP JUMPDEST JUMPDEST PUSH1 0x0 PUSH2 0x414 DUP5 DUP3 DUP6 ADD PUSH2 0x3DB JUMP JUMPDEST SWAP2 POP POP SWAP3 SWAP2 POP POP JUMP JUMPDEST PUSH32 0x4E487B7100000000000000000000000000000000000000000000000000000000 PUSH1 0x0 MSTORE PUSH1 0x21 PUSH1 0x4 MSTORE PUSH1 0x24 PUSH1 0x0 REVERT JUMPDEST PUSH1 0x3 DUP2 LT PUSH2 0x45D JUMPI PUSH2 0x45C PUSH2 0x41D JUMP JUMPDEST JUMPDEST POP JUMP JUMPDEST PUSH1 0x0 DUP2 SWAP1 POP PUSH2 0x46E DUP3 PUSH2 0x44C JUMP JUMPDEST SWAP2 SWAP1 POP JUMP JUMPDEST PUSH1 0x0 PUSH2 0x47E DUP3 PUSH2 0x460 JUMP JUMPDEST SWAP1 POP SWAP2 SWAP1 POP JUMP JUMPDEST PUSH2 0x48E DUP2 PUSH2 0x473 JUMP JUMPDEST DUP3 MSTORE POP POP JUMP JUMPDEST PUSH1 0x0 PUSH1 0x60 DUP3 ADD SWAP1 POP PUSH2 0x4A9 PUSH1 0x0 DUP4 ADD DUP7 PUSH2 0x37F JUMP JUMPDEST PUSH2 0x4B6 PUSH1 0x20 DUP4 ADD DUP6 PUSH2 0x485 JUMP JUMPDEST PUSH2 0x4C3 PUSH1 0x40 DUP4 ADD DUP5 PUSH2 0x30E JUMP JUMPDEST SWAP5 SWAP4 POP POP POP POP JUMP JUMPDEST PUSH32 0x4E487B7100000000000000000000000000000000000000000000000000000000 PUSH1 0x0 MSTORE PUSH1 0x22 PUSH1 0x4 MSTORE PUSH1 0x24 PUSH1 0x0 REVERT JUMPDEST PUSH1 0x0 PUSH1 0x2 DUP3 DIV SWAP1 POP PUSH1 0x1 DUP3 AND DUP1 PUSH2 0x512 JUMPI PUSH1 0x7F DUP3 AND SWAP2 POP JUMPDEST PUSH1 0x20 DUP3 LT DUP2 SUB PUSH2 0x525 JUMPI PUSH2 0x524 PUSH2 0x4CB JUMP JUMPDEST JUMPDEST POP SWAP2 SWAP1 POP JUMP INVALID LOG2 PUSH5 0x6970667358 0x22 SLT KECCAK256 0xE PUSH31 0xF82EAB5F73CB0F8D8020A5B18BF67FF1543662A463D63FF2A4473D3FF2DD64 PUSH20 0x6F6C634300081200330000000000000000000000 "
		},
		"gasEstimates": {
			"creation": {
				"codeDepositCost": "275400",
				"executionCost": "infinite",
				"totalCost": "infinite"
			},
			"external": {
				"groceryItem(uint8)": "infinite",
				"owner()": "2511",
				"purchaseId()": "2451",
				"purchaseReceipt(uint256)": "infinite"
			}
		},
		"methodIdentifiers": {
			"groceryItem(uint8)": "148f03ac",
			"owner()": "8da5cb5b",
			"purchaseId()": "b344c2b3",
			"purchaseReceipt(uint256)": "f1e45cea"
		}
	},
	"abi": [
		{
			"inputs": [],
			"stateMutability": "nonpayable",
			"type": "constructor"
		},
		{
			"inputs": [
				{
					"internalType": "enum GroceryShop.GroceryType",
					"name": "",
					"type": "uint8"
				}
			],
			"name": "groceryItem",
			"outputs": [
				{
					"internalType": "string",
					"name": "name",
					"type": "string"
				},
				{
					"internalType": "uint256",
					"name": "numberOfItems",
					"type": "uint256"
				}
			],
			"stateMutability": "view",
			"type": "function"
		},
		{
			"inputs": [],
			"name": "owner",
			"outputs": [
				{
					"internalType": "address",
					"name": "",
					"type": "address"
				}
			],
			"stateMutability": "view",
			"type": "function"
		},
		{
			"inputs": [],
			"name": "purchaseId",
			"outputs": [
				{
					"internalType": "uint256",
					"name": "",
					"type": "uint256"
				}
			],
			"stateMutability": "view",
			"type": "function"
		},
		{
			"inputs": [
				{
					"internalType": "uint256",
					"name": "",
					"type": "uint256"
				}
			],
			"name": "purchaseReceipt",
			"outputs": [
				{
					"internalType": "address",
					"name": "buyer",
					"type": "address"
				},
				{
					"internalType": "enum GroceryShop.GroceryType",
					"name": "itemType",
					"type": "uint8"
				},
				{
					"internalType": "uint256",
					"name": "numberOfItemsBought",
					"type": "uint256"
				}
			],
			"stateMutability": "view",
			"type": "function"
		}
	]
}